{
    "_format": "hh-sol-artifact-1",
    "contractName": "LongShortPair",
    "sourceName": "contracts/financial-templates/long-short-pair/LongShortPair.sol",
    "abi": [
        {
            "inputs": [
                {
                    "components": [
                        {
                            "internalType": "string",
                            "name": "pairName",
                            "type": "string"
                        },
                        {
                            "internalType": "uint64",
                            "name": "expirationTimestamp",
                            "type": "uint64"
                        },
                        {
                            "internalType": "uint256",
                            "name": "collateralPerPair",
                            "type": "uint256"
                        },
                        {
                            "internalType": "bytes32",
                            "name": "priceIdentifier",
                            "type": "bytes32"
                        },
                        {
                            "internalType": "contract ExpandedIERC20",
                            "name": "longToken",
                            "type": "address"
                        },
                        {
                            "internalType": "contract ExpandedIERC20",
                            "name": "shortToken",
                            "type": "address"
                        },
                        {
                            "internalType": "contract IERC20",
                            "name": "collateralToken",
                            "type": "address"
                        },
                        {
                            "internalType": "contract LongShortPairFinancialProductLibrary",
                            "name": "financialProductLibrary",
                            "type": "address"
                        },
                        {
                            "internalType": "bytes",
                            "name": "customAncillaryData",
                            "type": "bytes"
                        },
                        {
                            "internalType": "uint256",
                            "name": "prepaidProposerReward",
                            "type": "uint256"
                        },
                        {
                            "internalType": "uint256",
                            "name": "optimisticOracleLivenessTime",
                            "type": "uint256"
                        },
                        {
                            "internalType": "uint256",
                            "name": "optimisticOracleProposerBond",
                            "type": "uint256"
                        },
                        {
                            "internalType": "contract FinderInterface",
                            "name": "finder",
                            "type": "address"
                        },
                        {
                            "internalType": "address",
                            "name": "timerAddress",
                            "type": "address"
                        }
                    ],
                    "internalType": "struct LongShortPair.ConstructorParams",
                    "name": "params",
                    "type": "tuple"
                }
            ],
            "stateMutability": "nonpayable",
            "type": "constructor"
        },
        {
            "anonymous": false,
            "inputs": [
                {
                    "indexed": true,
                    "internalType": "address",
                    "name": "caller",
                    "type": "address"
                }
            ],
            "name": "ContractExpired",
            "type": "event"
        },
        {
            "anonymous": false,
            "inputs": [
                {
                    "indexed": true,
                    "internalType": "address",
                    "name": "sponsor",
                    "type": "address"
                },
                {
                    "indexed": false,
                    "internalType": "uint256",
                    "name": "collateralReturned",
                    "type": "uint256"
                },
                {
                    "indexed": false,
                    "internalType": "uint256",
                    "name": "longTokens",
                    "type": "uint256"
                },
                {
                    "indexed": false,
                    "internalType": "uint256",
                    "name": "shortTokens",
                    "type": "uint256"
                }
            ],
            "name": "PositionSettled",
            "type": "event"
        },
        {
            "anonymous": false,
            "inputs": [
                {
                    "indexed": true,
                    "internalType": "address",
                    "name": "sponsor",
                    "type": "address"
                },
                {
                    "indexed": true,
                    "internalType": "uint256",
                    "name": "collateralUsed",
                    "type": "uint256"
                },
                {
                    "indexed": true,
                    "internalType": "uint256",
                    "name": "tokensMinted",
                    "type": "uint256"
                }
            ],
            "name": "TokensCreated",
            "type": "event"
        },
        {
            "anonymous": false,
            "inputs": [
                {
                    "indexed": true,
                    "internalType": "address",
                    "name": "sponsor",
                    "type": "address"
                },
                {
                    "indexed": true,
                    "internalType": "uint256",
                    "name": "collateralReturned",
                    "type": "uint256"
                },
                {
                    "indexed": true,
                    "internalType": "uint256",
                    "name": "tokensRedeemed",
                    "type": "uint256"
                }
            ],
            "name": "TokensRedeemed",
            "type": "event"
        },
        {
            "inputs": [],
            "name": "collateralPerPair",
            "outputs": [
                {
                    "internalType": "uint256",
                    "name": "",
                    "type": "uint256"
                }
            ],
            "stateMutability": "view",
            "type": "function"
        },
        {
            "inputs": [],
            "name": "collateralToken",
            "outputs": [
                {
                    "internalType": "contract IERC20",
                    "name": "",
                    "type": "address"
                }
            ],
            "stateMutability": "view",
            "type": "function"
        },
        {
            "inputs": [],
            "name": "contractState",
            "outputs": [
                {
                    "internalType": "enum LongShortPair.ContractState",
                    "name": "",
                    "type": "uint8"
                }
            ],
            "stateMutability": "view",
            "type": "function"
        },
        {
            "inputs": [
                {
                    "internalType": "uint256",
                    "name": "tokensToCreate",
                    "type": "uint256"
                }
            ],
            "name": "create",
            "outputs": [
                {
                    "internalType": "uint256",
                    "name": "collateralUsed",
                    "type": "uint256"
                }
            ],
            "stateMutability": "nonpayable",
            "type": "function"
        },
        {
            "inputs": [],
            "name": "customAncillaryData",
            "outputs": [
                {
                    "internalType": "bytes",
                    "name": "",
                    "type": "bytes"
                }
            ],
            "stateMutability": "view",
            "type": "function"
        },
        {
            "inputs": [],
            "name": "expirationTimestamp",
            "outputs": [
                {
                    "internalType": "uint64",
                    "name": "",
                    "type": "uint64"
                }
            ],
            "stateMutability": "view",
            "type": "function"
        },
        {
            "inputs": [],
            "name": "expire",
            "outputs": [],
            "stateMutability": "nonpayable",
            "type": "function"
        },
        {
            "inputs": [],
            "name": "expiryPercentLong",
            "outputs": [
                {
                    "internalType": "uint256",
                    "name": "",
                    "type": "uint256"
                }
            ],
            "stateMutability": "view",
            "type": "function"
        },
        {
            "inputs": [],
            "name": "expiryPrice",
            "outputs": [
                {
                    "internalType": "int256",
                    "name": "",
                    "type": "int256"
                }
            ],
            "stateMutability": "view",
            "type": "function"
        },
        {
            "inputs": [],
            "name": "financialProductLibrary",
            "outputs": [
                {
                    "internalType": "contract LongShortPairFinancialProductLibrary",
                    "name": "",
                    "type": "address"
                }
            ],
            "stateMutability": "view",
            "type": "function"
        },
        {
            "inputs": [],
            "name": "finder",
            "outputs": [
                {
                    "internalType": "contract FinderInterface",
                    "name": "",
                    "type": "address"
                }
            ],
            "stateMutability": "view",
            "type": "function"
        },
        {
            "inputs": [],
            "name": "getCurrentTime",
            "outputs": [
                {
                    "internalType": "uint256",
                    "name": "",
                    "type": "uint256"
                }
            ],
            "stateMutability": "view",
            "type": "function"
        },
        {
            "inputs": [
                {
                    "internalType": "address",
                    "name": "sponsor",
                    "type": "address"
                }
            ],
            "name": "getPositionTokens",
            "outputs": [
                {
                    "internalType": "uint256",
                    "name": "",
                    "type": "uint256"
                },
                {
                    "internalType": "uint256",
                    "name": "",
                    "type": "uint256"
                }
            ],
            "stateMutability": "view",
            "type": "function"
        },
        {
            "inputs": [],
            "name": "longToken",
            "outputs": [
                {
                    "internalType": "contract ExpandedIERC20",
                    "name": "",
                    "type": "address"
                }
            ],
            "stateMutability": "view",
            "type": "function"
        },
        {
            "inputs": [],
            "name": "optimisticOracleLivenessTime",
            "outputs": [
                {
                    "internalType": "uint256",
                    "name": "",
                    "type": "uint256"
                }
            ],
            "stateMutability": "view",
            "type": "function"
        },
        {
            "inputs": [],
            "name": "optimisticOracleProposerBond",
            "outputs": [
                {
                    "internalType": "uint256",
                    "name": "",
                    "type": "uint256"
                }
            ],
            "stateMutability": "view",
            "type": "function"
        },
        {
            "inputs": [],
            "name": "pairName",
            "outputs": [
                {
                    "internalType": "string",
                    "name": "",
                    "type": "string"
                }
            ],
            "stateMutability": "view",
            "type": "function"
        },
        {
            "inputs": [],
            "name": "prepaidProposerReward",
            "outputs": [
                {
                    "internalType": "uint256",
                    "name": "",
                    "type": "uint256"
                }
            ],
            "stateMutability": "view",
            "type": "function"
        },
        {
            "inputs": [],
            "name": "priceIdentifier",
            "outputs": [
                {
                    "internalType": "bytes32",
                    "name": "",
                    "type": "bytes32"
                }
            ],
            "stateMutability": "view",
            "type": "function"
        },
        {
            "inputs": [
                {
                    "internalType": "uint256",
                    "name": "tokensToRedeem",
                    "type": "uint256"
                }
            ],
            "name": "redeem",
            "outputs": [
                {
                    "internalType": "uint256",
                    "name": "collateralReturned",
                    "type": "uint256"
                }
            ],
            "stateMutability": "nonpayable",
            "type": "function"
        },
        {
            "inputs": [
                {
                    "internalType": "uint256",
                    "name": "time",
                    "type": "uint256"
                }
            ],
            "name": "setCurrentTime",
            "outputs": [],
            "stateMutability": "nonpayable",
            "type": "function"
        },
        {
            "inputs": [
                {
                    "internalType": "uint256",
                    "name": "longTokensToRedeem",
                    "type": "uint256"
                },
                {
                    "internalType": "uint256",
                    "name": "shortTokensToRedeem",
                    "type": "uint256"
                }
            ],
            "name": "settle",
            "outputs": [
                {
                    "internalType": "uint256",
                    "name": "collateralReturned",
                    "type": "uint256"
                }
            ],
            "stateMutability": "nonpayable",
            "type": "function"
        },
        {
            "inputs": [],
            "name": "shortToken",
            "outputs": [
                {
                    "internalType": "contract ExpandedIERC20",
                    "name": "",
                    "type": "address"
                }
            ],
            "stateMutability": "view",
            "type": "function"
        },
        {
            "inputs": [],
            "name": "timerAddress",
            "outputs": [
                {
                    "internalType": "address",
                    "name": "",
                    "type": "address"
                }
            ],
            "stateMutability": "view",
            "type": "function"
        }
    ],
    "bytecode": "0x60806040523480156200001157600080fd5b50604051620032f5380380620032f5833981016040819052620000349162000ac8565b6101a0810151600080546001600160a81b0319166001600160a01b0392831617600160a01b17905561018082015160098054919092166001600160a01b031991909116179055805151620000cf5760405162461bcd60e51b815260206004820152601760248201527f50616972206e616d652063616e7420626520656d70747900000000000000000060448201526064015b60405180910390fd5b620000d9620006fc565b81602001516001600160401b031611620001365760405162461bcd60e51b815260206004820152601c60248201527f45787069726174696f6e2074696d657374616d7020696e2070617374000000006044820152606401620000c6565b60008160400151116200018c5760405162461bcd60e51b815260206004820152601f60248201527f436f6c6c61746572616c2070657220706169722063616e6e6f742062652030006044820152606401620000c6565b62000196620007a1565b6001600160a01b03166390978d1b82606001516040518263ffffffff1660e01b8152600401620001c891815260200190565b60206040518083038186803b158015620001e157600080fd5b505afa158015620001f6573d6000803e3d6000fd5b505050506040513d601f19601f820116820180604052508101906200021c919062000c2a565b6200026a5760405162461bcd60e51b815260206004820152601960248201527f4964656e746966696572206e6f742072656769737465726564000000000000006044820152606401620000c6565b60006200027662000842565b6001600160a01b03161415620002c05760405162461bcd60e51b815260206004820152600e60248201526d24b73b30b634b2103334b73232b960911b6044820152606401620000c6565b60e08101516001600160a01b03166200031c5760405162461bcd60e51b815260206004820152601f60248201527f496e76616c69642046696e616e6369616c50726f647563744c696272617279006044820152606401620000c6565b6200032662000887565b60c0820151604051631d1d5b3960e11b81526001600160a01b039182166004820152911690633a3ab6729060240160206040518083038186803b1580156200036d57600080fd5b505afa15801562000382573d6000803e3d6000fd5b505050506040513d601f19601f82011682018060405250810190620003a8919062000c2a565b620003f65760405162461bcd60e51b815260206004820152601a60248201527f436f6c6c61746572616c206e6f742077686974656c69737465640000000000006044820152606401620000c6565b6000816101400151116200044d5760405162461bcd60e51b815260206004820152601760248201527f4f4f206c6976656e6573732063616e6e6f7420626520300000000000000000006044820152606401620000c6565b63bb74480081610140015110620004a75760405162461bcd60e51b815260206004820152601560248201527f4f4f206c6976656e65737320746f6f206c6172676500000000000000000000006044820152606401620000c6565b80518051620004bf91600191602090910190620008d9565b506020810151600080546001600160401b03909216600160b01b02600160b01b600160f01b0319909216919091178155604082015160025560608201516005556080820151600780546001600160a01b039283166001600160a01b03199182161790915560a08401516008805491841691831691909117905560c08401516006805491841691831691909117905560e0840151600a80549190931691161790556200056962000842565b9050806001600160a01b031663c371dda76040518163ffffffff1660e01b815260040160206040518083038186803b158015620005a557600080fd5b505afa158015620005ba573d6000803e3d6000fd5b505050506040513d601f19601f82011682018060405250810190620005e0919062000c55565b61010083015160405163af5d2f3960e01b81526001600160a01b0384169163af5d2f3991620006159190309060040162000c6f565b60006040518083038186803b1580156200062e57600080fd5b505afa15801562000643573d6000803e3d6000fd5b505050506040513d6000823e601f3d908101601f191682016040526200066d919081019062000cb5565b511115620006be5760405162461bcd60e51b815260206004820152601760248201527f416e63696c6c617279204461746120746f6f206c6f6e670000000000000000006044820152606401620000c6565b6101008201518051620006da91600b91602090910190620008d9565b5050610120810151600c55610140810151600d556101600151600e5562000d52565b600080546001600160a01b0316156200079c5760008054906101000a90046001600160a01b03166001600160a01b03166329cb924d6040518163ffffffff1660e01b815260040160206040518083038186803b1580156200075c57600080fd5b505afa15801562000771573d6000803e3d6000fd5b505050506040513d601f19601f8201168201806040525081019062000797919062000c55565b905090565b504290565b6009546040516302abf57960e61b81527f4964656e74696669657257686974656c6973740000000000000000000000000060048201526000916001600160a01b03169063aafd5e40906024015b60206040518083038186803b1580156200080757600080fd5b505afa1580156200081c573d6000803e3d6000fd5b505050506040513d601f19601f8201168201806040525081019062000797919062000cf5565b6009546040516302abf57960e61b81526f4f7074696d69737469634f7261636c6560801b60048201526000916001600160a01b03169063aafd5e4090602401620007ee565b6009546040516302abf57960e61b81527f436f6c6c61746572616c57686974656c6973740000000000000000000000000060048201526000916001600160a01b03169063aafd5e4090602401620007ee565b828054620008e79062000d15565b90600052602060002090601f0160209004810192826200090b576000855562000956565b82601f106200092657805160ff191683800117855562000956565b8280016001018555821562000956579182015b828111156200095657825182559160200191906001019062000939565b506200096492915062000968565b5090565b5b8082111562000964576000815560010162000969565b634e487b7160e01b600052604160045260246000fd5b6040516101c081016001600160401b0381118282101715620009bb57620009bb6200097f565b60405290565b60005b83811015620009de578181015183820152602001620009c4565b83811115620009ee576000848401525b50505050565b600082601f83011262000a0657600080fd5b81516001600160401b038082111562000a235762000a236200097f565b604051601f8301601f19908116603f0116810190828211818310171562000a4e5762000a4e6200097f565b8160405283815286602085880101111562000a6857600080fd5b62000a7b846020830160208901620009c1565b9695505050505050565b80516001600160401b038116811462000a9d57600080fd5b919050565b6001600160a01b038116811462000ab857600080fd5b50565b805162000a9d8162000aa2565b60006020828403121562000adb57600080fd5b81516001600160401b038082111562000af357600080fd5b908301906101c0828603121562000b0957600080fd5b62000b1362000995565b82518281111562000b2357600080fd5b62000b3187828601620009f4565b82525062000b426020840162000a85565b6020820152604083015160408201526060830151606082015262000b696080840162000abb565b608082015262000b7c60a0840162000abb565b60a082015262000b8f60c0840162000abb565b60c082015262000ba260e0840162000abb565b60e0820152610100808401518381111562000bbc57600080fd5b62000bca88828701620009f4565b9183019190915250610120838101519082015261014080840151908201526101608084015190820152610180915062000c0582840162000abb565b828201526101a0915062000c1b82840162000abb565b91810191909152949350505050565b60006020828403121562000c3d57600080fd5b8151801515811462000c4e57600080fd5b9392505050565b60006020828403121562000c6857600080fd5b5051919050565b604081526000835180604084015262000c90816060850160208801620009c1565b6001600160a01b0393909316602083015250601f91909101601f191601606001919050565b60006020828403121562000cc857600080fd5b81516001600160401b0381111562000cdf57600080fd5b62000ced84828501620009f4565b949350505050565b60006020828403121562000d0857600080fd5b815162000c4e8162000aa2565b600181811c9082168062000d2a57607f821691505b6020821081141562000d4c57634e487b7160e01b600052602260045260246000fd5b50919050565b6125938062000d626000396000f3fe608060405234801561001057600080fd5b50600436106101985760003560e01c806397523661116100e3578063b9a3c84c1161008c578063e3065da711610066578063e3065da7146103bf578063e964ae02146103df578063edfa9a9b146103e857600080fd5b8063b9a3c84c14610383578063b9fd36c8146103a3578063db006a75146103ac57600080fd5b8063a9ae29df116100bd578063a9ae29df1461033a578063b2016bd414610343578063b66333cd1461036357600080fd5b806397523661146102d75780639a9c29f6146102e05780639f43ddd2146102f357600080fd5b8063780900dc1161014557806385209ee01161011f57806385209ee01461027b57806385c98474146102ae5780639375f0e9146102b757600080fd5b8063780900dc1461025857806379599f961461026b5780638150fd3d1461027357600080fd5b806340794c3b1161017657806340794c3b146102125780634eef4a73146102275780634fe4ecbf1461024f57600080fd5b80631c39c38d1461019d57806322f8e566146101e757806329cb924d146101fc575b600080fd5b6000546101bd9073ffffffffffffffffffffffffffffffffffffffff1681565b60405173ffffffffffffffffffffffffffffffffffffffff90911681526020015b60405180910390f35b6101fa6101f536600461205c565b6103f1565b005b61020461049a565b6040519081526020016101de565b61021a610561565b6040516101de91906120eb565b61023a610235366004612123565b6105ef565b604080519283526020830191909152016101de565b610204600d5481565b61020461026636600461205c565b610749565b6101fa610a46565b61021a610c60565b6000546102a1907501000000000000000000000000000000000000000000900460ff1681565b6040516101de919061216f565b610204600e5481565b600a546101bd9073ffffffffffffffffffffffffffffffffffffffff1681565b61020460055481565b6102046102ee3660046121b0565b610c6d565b60005461032190760100000000000000000000000000000000000000000000900467ffffffffffffffff1681565b60405167ffffffffffffffff90911681526020016101de565b61020460045481565b6006546101bd9073ffffffffffffffffffffffffffffffffffffffff1681565b6007546101bd9073ffffffffffffffffffffffffffffffffffffffff1681565b6009546101bd9073ffffffffffffffffffffffffffffffffffffffff1681565b610204600c5481565b6102046103ba36600461205c565b6111f5565b6008546101bd9073ffffffffffffffffffffffffffffffffffffffff1681565b61020460025481565b61020460035481565b60005473ffffffffffffffffffffffffffffffffffffffff1661041357600080fd5b6000546040517f22f8e5660000000000000000000000000000000000000000000000000000000081526004810183905273ffffffffffffffffffffffffffffffffffffffff909116906322f8e56690602401600060405180830381600087803b15801561047f57600080fd5b505af1158015610493573d6000803e3d6000fd5b5050505050565b6000805473ffffffffffffffffffffffffffffffffffffffff161561055c5760008054906101000a900473ffffffffffffffffffffffffffffffffffffffff1673ffffffffffffffffffffffffffffffffffffffff166329cb924d6040518163ffffffff1660e01b815260040160206040518083038186803b15801561051f57600080fd5b505afa158015610533573d6000803e3d6000fd5b505050506040513d601f19601f8201168201806040525081019061055791906121d2565b905090565b504290565b6001805461056e906121eb565b80601f016020809104026020016040519081016040528092919081815260200182805461059a906121eb565b80156105e75780601f106105bc576101008083540402835291602001916105e7565b820191906000526020600020905b8154815290600101906020018083116105ca57829003601f168201915b505050505081565b6000806105fa611452565b6007546040517f70a0823100000000000000000000000000000000000000000000000000000000815273ffffffffffffffffffffffffffffffffffffffff8581166004830152909116906370a082319060240160206040518083038186803b15801561066557600080fd5b505afa158015610679573d6000803e3d6000fd5b505050506040513d601f19601f8201168201806040525081019061069d91906121d2565b6008546040517f70a0823100000000000000000000000000000000000000000000000000000000815273ffffffffffffffffffffffffffffffffffffffff8681166004830152909116906370a082319060240160206040518083038186803b15801561070857600080fd5b505afa15801561071c573d6000803e3d6000fd5b505050506040513d601f19601f8201168201806040525081019061074091906121d2565b91509150915091565b60008054760100000000000000000000000000000000000000000000900467ffffffffffffffff1661077961049a565b106107e5576040517f08c379a000000000000000000000000000000000000000000000000000000000815260206004820152601860248201527f4f6e6c792063616c6c61626c65207072652d657870697279000000000000000060448201526064015b60405180910390fd5b6107ed611452565b61081a600080547fffffffffffffffffffffff00ffffffffffffffffffffffffffffffffffffffff169055565b60408051602080820183526002548252825190810190925283825261083f91906114d6565b516006549091506108689073ffffffffffffffffffffffffffffffffffffffff16333084611564565b6007546040517f40c10f190000000000000000000000000000000000000000000000000000000081523360048201526024810184905273ffffffffffffffffffffffffffffffffffffffff909116906340c10f1990604401602060405180830381600087803b1580156108da57600080fd5b505af11580156108ee573d6000803e3d6000fd5b505050506040513d601f19601f82011682018060405250810190610912919061223f565b61091b57600080fd5b6008546040517f40c10f190000000000000000000000000000000000000000000000000000000081523360048201526024810184905273ffffffffffffffffffffffffffffffffffffffff909116906340c10f1990604401602060405180830381600087803b15801561098d57600080fd5b505af11580156109a1573d6000803e3d6000fd5b505050506040513d601f19601f820116820180604052508101906109c5919061223f565b6109ce57600080fd5b6040518290829033907f2b42f4b25222a5d447ca19dfca2afd1b8d32adfed550f7b87bf9569f6da70c0090600090a4610a41600080547fffffffffffffffffffffff00ffffffffffffffffffffffffffffffffffffffff1674010000000000000000000000000000000000000000179055565b919050565b600054760100000000000000000000000000000000000000000000900467ffffffffffffffff16610a7561049a565b1015610add576040517f08c379a000000000000000000000000000000000000000000000000000000000815260206004820152601960248201527f4f6e6c792063616c6c61626c6520706f73742d6578706972790000000000000060448201526064016107dc565b600080547501000000000000000000000000000000000000000000900460ff166002811115610b0e57610b0e612140565b14610b75576040517f08c379a000000000000000000000000000000000000000000000000000000000815260206004820152601a60248201527f436f6e7472616374207374617465206973206e6f74204f70656e00000000000060448201526064016107dc565b610b7d611452565b610baa600080547fffffffffffffffffffffff00ffffffffffffffffffffffffffffffffffffffff169055565b610bb2611646565b600080547fffffffffffffffffffff00ffffffffffffffffffffffffffffffffffffffffff16750100000000000000000000000000000000000000000017815560405133917f18600820405d6cf356e3556301762ca32395e72d8c81494fa344835c9da3633d91a2610c5e600080547fffffffffffffffffffffff00ffffffffffffffffffffffffffffffffffffffff1674010000000000000000000000000000000000000000179055565b565b600b805461056e906121eb565b60008054760100000000000000000000000000000000000000000000900467ffffffffffffffff16610c9d61049a565b1015610d05576040517f08c379a000000000000000000000000000000000000000000000000000000000815260206004820152601960248201527f4f6e6c792063616c6c61626c6520706f73742d6578706972790000000000000060448201526064016107dc565b610d0d611452565b610d3a600080547fffffffffffffffffffffff00ffffffffffffffffffffffffffffffffffffffff169055565b600080547501000000000000000000000000000000000000000000900460ff166002811115610d6b57610d6b612140565b1415610dd3576040517f08c379a000000000000000000000000000000000000000000000000000000000815260206004820152601260248201527f556e6578706972656420636f6e7472616374000000000000000000000000000060448201526064016107dc565b60026000547501000000000000000000000000000000000000000000900460ff166002811115610e0557610e05612140565b14610f3a57600054610e3a90760100000000000000000000000000000000000000000000900467ffffffffffffffff166118f2565b6003819055600a546040517f2da523610000000000000000000000000000000000000000000000000000000081526004810192909252610ef69173ffffffffffffffffffffffffffffffffffffffff90911690632da523619060240160206040518083038186803b158015610eae57600080fd5b505afa158015610ec2573d6000803e3d6000fd5b505050506040513d601f19601f82011682018060405250810190610ee691906121d2565b610ef06001611a69565b51611a9e565b600455600080547fffffffffffffffffffff00ffffffffffffffffffffffffffffffffffffffffff1675020000000000000000000000000000000000000000001790555b6007546040517f79cc67900000000000000000000000000000000000000000000000000000000081523360048201526024810185905273ffffffffffffffffffffffffffffffffffffffff909116906379cc679090604401602060405180830381600087803b158015610fac57600080fd5b505af1158015610fc0573d6000803e3d6000fd5b505050506040513d601f19601f82011682018060405250810190610fe4919061223f565b610fed57600080fd5b6008546040517f79cc67900000000000000000000000000000000000000000000000000000000081523360048201526024810184905273ffffffffffffffffffffffffffffffffffffffff909116906379cc679090604401602060405180830381600087803b15801561105f57600080fd5b505af1158015611073573d6000803e3d6000fd5b505050506040513d601f19601f82011682018060405250810190611097919061223f565b6110a057600080fd5b6040805160208082018352600454825282518082018452600254815283519182019093528581526000926110de92916110d891611ab6565b90611ab6565b600001519050600061113261110d60405180602001604052806004548152506111076001611a69565b90611afc565b6040805160208082018352600254825282519081019092528782526110d89190611ab6565b51905061113f8183612290565b6006549093506111669073ffffffffffffffffffffffffffffffffffffffff163385611b26565b604080518481526020810187905290810185905233907fe8fdc264e5a5640d893f125384c4e2c5afe2d9a04aef1129e643caaa72771cff9060600160405180910390a250506111ef600080547fffffffffffffffffffffff00ffffffffffffffffffffffffffffffffffffffff1674010000000000000000000000000000000000000000179055565b92915050565b60006111ff611452565b61122c600080547fffffffffffffffffffffff00ffffffffffffffffffffffffffffffffffffffff169055565b6007546040517f79cc67900000000000000000000000000000000000000000000000000000000081523360048201526024810184905273ffffffffffffffffffffffffffffffffffffffff909116906379cc679090604401602060405180830381600087803b15801561129e57600080fd5b505af11580156112b2573d6000803e3d6000fd5b505050506040513d601f19601f820116820180604052508101906112d6919061223f565b6112df57600080fd5b6008546040517f79cc67900000000000000000000000000000000000000000000000000000000081523360048201526024810184905273ffffffffffffffffffffffffffffffffffffffff909116906379cc679090604401602060405180830381600087803b15801561135157600080fd5b505af1158015611365573d6000803e3d6000fd5b505050506040513d601f19601f82011682018060405250810190611389919061223f565b61139257600080fd5b6040805160208082018352600254825282519081019092528382526113b79190611ab6565b516006549091506113df9073ffffffffffffffffffffffffffffffffffffffff163383611b26565b6040518290829033907fd171fb179b26c49e23fe46eddd44d3048a1ad277b62144ac0725fbcf1dbf6d5290600090a4610a41600080547fffffffffffffffffffffff00ffffffffffffffffffffffffffffffffffffffff1674010000000000000000000000000000000000000000179055565b60005474010000000000000000000000000000000000000000900460ff16610c5e576040517f08c379a000000000000000000000000000000000000000000000000000000000815260206004820152601f60248201527f5265656e7472616e637947756172643a207265656e7472616e742063616c6c0060448201526064016107dc565b60408051602081019091526000808252825184516114f391611b81565b90506000611509670de0b6b3a7640000836122d7565b9050600061151f83670de0b6b3a7640000611b8d565b9050801561154b5760408051602081019091528061153e846001611b99565b81525093505050506111ef565b60405180602001604052808381525093505050506111ef565b60405173ffffffffffffffffffffffffffffffffffffffff808516602483015283166044820152606481018290526116409085907f23b872dd00000000000000000000000000000000000000000000000000000000906084015b604080517fffffffffffffffffffffffffffffffffffffffffffffffffffffffffffffffe08184030181529190526020810180517bffffffffffffffffffffffffffffffffffffffffffffffffffffffff167fffffffff0000000000000000000000000000000000000000000000000000000090931692909217909152611ba5565b50505050565b6000611650611cb1565b600c549091501561168557600c546006546116859173ffffffffffffffffffffffffffffffffffffffff909116908390611d73565b600554600054600654600c546040517f11df92f100000000000000000000000000000000000000000000000000000000815273ffffffffffffffffffffffffffffffffffffffff868116956311df92f19561171195919476010000000000000000000000000000000000000000000090910467ffffffffffffffff1693600b93909216916004016123c2565b602060405180830381600087803b15801561172b57600080fd5b505af115801561173f573d6000803e3d6000fd5b505050506040513d601f19601f8201168201806040525081019061176391906121d2565b50600554600054600d546040517f473c45fe00000000000000000000000000000000000000000000000000000000815273ffffffffffffffffffffffffffffffffffffffff85169363473c45fe936117e893919276010000000000000000000000000000000000000000000090910467ffffffffffffffff1691600b91600401612415565b600060405180830381600087803b15801561180257600080fd5b505af1158015611816573d6000803e3d6000fd5b5050600554600054600e546040517fad5a755a00000000000000000000000000000000000000000000000000000000815273ffffffffffffffffffffffffffffffffffffffff8716955063ad5a755a945061189c9392760100000000000000000000000000000000000000000000900467ffffffffffffffff1691600b91600401612415565b602060405180830381600087803b1580156118b657600080fd5b505af11580156118ca573d6000803e3d6000fd5b505050506040513d601f19601f820116820180604052508101906118ee91906121d2565b5050565b6000806118fd611cb1565b6005546040517fbc58ccaa00000000000000000000000000000000000000000000000000000000815291925073ffffffffffffffffffffffffffffffffffffffff83169163bc58ccaa9161195b913091908890600b9060040161244f565b60206040518083038186803b15801561197357600080fd5b505afa158015611987573d6000803e3d6000fd5b505050506040513d601f19601f820116820180604052508101906119ab919061223f565b6119b457600080fd5b6005546040517f53b5923900000000000000000000000000000000000000000000000000000000815260009173ffffffffffffffffffffffffffffffffffffffff8416916353b5923991611a0f918890600b90600401612494565b602060405180830381600087803b158015611a2957600080fd5b505af1158015611a3d573d6000803e3d6000fd5b505050506040513d601f19601f82011682018060405250810190611a6191906121d2565b949350505050565b604080516020810190915260008152604080516020810190915280611a9684670de0b6b3a7640000611b81565b905292915050565b6000818310611aad5781611aaf565b825b9392505050565b6040805160208101909152600081526040805160208101909152825184518291670de0b6b3a764000091611ae991611b81565b611af391906122d7565b90529392505050565b6040805160208101909152600081526040805160208101909152825184518291611af39190611f04565b60405173ffffffffffffffffffffffffffffffffffffffff8316602482015260448101829052611b7c9084907fa9059cbb00000000000000000000000000000000000000000000000000000000906064016115be565b505050565b6000611aaf82846124bc565b6000611aaf82846124f9565b6000611aaf8284612290565b6000611c07826040518060400160405280602081526020017f5361666545524332303a206c6f772d6c6576656c2063616c6c206661696c65648152508573ffffffffffffffffffffffffffffffffffffffff16611f109092919063ffffffff16565b805190915015611b7c5780806020019051810190611c25919061223f565b611b7c576040517f08c379a000000000000000000000000000000000000000000000000000000000815260206004820152602a60248201527f5361666545524332303a204552433230206f7065726174696f6e20646964206e60448201527f6f7420737563636565640000000000000000000000000000000000000000000060648201526084016107dc565b6009546040517faafd5e400000000000000000000000000000000000000000000000000000000081527f4f7074696d69737469634f7261636c6500000000000000000000000000000000600482015260009173ffffffffffffffffffffffffffffffffffffffff169063aafd5e409060240160206040518083038186803b158015611d3b57600080fd5b505afa158015611d4f573d6000803e3d6000fd5b505050506040513d601f19601f82011682018060405250810190610557919061250d565b801580611e2257506040517fdd62ed3e00000000000000000000000000000000000000000000000000000000815230600482015273ffffffffffffffffffffffffffffffffffffffff838116602483015284169063dd62ed3e9060440160206040518083038186803b158015611de857600080fd5b505afa158015611dfc573d6000803e3d6000fd5b505050506040513d601f19601f82011682018060405250810190611e2091906121d2565b155b611eae576040517f08c379a000000000000000000000000000000000000000000000000000000000815260206004820152603660248201527f5361666545524332303a20617070726f76652066726f6d206e6f6e2d7a65726f60448201527f20746f206e6f6e2d7a65726f20616c6c6f77616e63650000000000000000000060648201526084016107dc565b60405173ffffffffffffffffffffffffffffffffffffffff8316602482015260448101829052611b7c9084907f095ea7b300000000000000000000000000000000000000000000000000000000906064016115be565b6000611aaf828461252a565b6060611a61848460008585843b611f83576040517f08c379a000000000000000000000000000000000000000000000000000000000815260206004820152601d60248201527f416464726573733a2063616c6c20746f206e6f6e2d636f6e747261637400000060448201526064016107dc565b6000808673ffffffffffffffffffffffffffffffffffffffff168587604051611fac9190612541565b60006040518083038185875af1925050503d8060008114611fe9576040519150601f19603f3d011682016040523d82523d6000602084013e611fee565b606091505b5091509150611ffe828286612009565b979650505050505050565b60608315612018575081611aaf565b8251156120285782518084602001fd5b816040517f08c379a00000000000000000000000000000000000000000000000000000000081526004016107dc91906120eb565b60006020828403121561206e57600080fd5b5035919050565b60005b83811015612090578181015183820152602001612078565b838111156116405750506000910152565b600081518084526120b9816020860160208601612075565b601f017fffffffffffffffffffffffffffffffffffffffffffffffffffffffffffffffe0169290920160200192915050565b602081526000611aaf60208301846120a1565b73ffffffffffffffffffffffffffffffffffffffff8116811461212057600080fd5b50565b60006020828403121561213557600080fd5b8135611aaf816120fe565b7f4e487b7100000000000000000000000000000000000000000000000000000000600052602160045260246000fd5b60208101600383106121aa577f4e487b7100000000000000000000000000000000000000000000000000000000600052602160045260246000fd5b91905290565b600080604083850312156121c357600080fd5b50508035926020909101359150565b6000602082840312156121e457600080fd5b5051919050565b600181811c908216806121ff57607f821691505b60208210811415612239577f4e487b7100000000000000000000000000000000000000000000000000000000600052602260045260246000fd5b50919050565b60006020828403121561225157600080fd5b81518015158114611aaf57600080fd5b7f4e487b7100000000000000000000000000000000000000000000000000000000600052601160045260246000fd5b600082198211156122a3576122a3612261565b500190565b7f4e487b7100000000000000000000000000000000000000000000000000000000600052601260045260246000fd5b6000826122e6576122e66122a8565b500490565b8054600090600181811c908083168061230557607f831692505b6020808410821415612340577f4e487b7100000000000000000000000000000000000000000000000000000000600052602260045260246000fd5b8388526020880182801561235b576001811461238a576123b5565b7fffffffffffffffffffffffffffffffffffffffffffffffffffffffffffffff008716825282820197506123b5565b60008981526020902060005b878110156123af57815484820152908601908401612396565b83019850505b5050505050505092915050565b85815267ffffffffffffffff8516602082015260a0604082015260006123eb60a08301866122eb565b73ffffffffffffffffffffffffffffffffffffffff94909416606083015250608001529392505050565b84815267ffffffffffffffff8416602082015260806040820152600061243e60808301856122eb565b905082606083015295945050505050565b73ffffffffffffffffffffffffffffffffffffffff8516815283602082015282604082015260806060820152600061248a60808301846122eb565b9695505050505050565b8381528260208201526060604082015260006124b360608301846122eb565b95945050505050565b6000817fffffffffffffffffffffffffffffffffffffffffffffffffffffffffffffffff04831182151516156124f4576124f4612261565b500290565b600082612508576125086122a8565b500690565b60006020828403121561251f57600080fd5b8151611aaf816120fe565b60008282101561253c5761253c612261565b500390565b60008251612553818460208701612075565b919091019291505056fea264697066735822122064aae75b6c1d9fd1edf6fd6de166990bf86f45b4902cb344a721eff9eef9eead64736f6c63430008090033",
    "linkReferences": {},
    "deployedLinkReferences": {}
}